{
  "contractName": "Lottery",
  "abi": [
    {
      "inputs": [],
      "stateMutability": "nonpayable",
      "type": "constructor"
    },
    {
      "inputs": [
        {
          "internalType": "uint256",
          "name": "",
          "type": "uint256"
        }
      ],
      "name": "players",
      "outputs": [
        {
          "internalType": "address payable",
          "name": "",
          "type": "address"
        }
      ],
      "stateMutability": "view",
      "type": "function"
    },
    {
      "inputs": [],
      "name": "winner",
      "outputs": [
        {
          "internalType": "address payable",
          "name": "",
          "type": "address"
        }
      ],
      "stateMutability": "view",
      "type": "function"
    },
    {
      "stateMutability": "payable",
      "type": "receive"
    },
    {
      "inputs": [],
      "name": "getBalance",
      "outputs": [
        {
          "internalType": "uint256",
          "name": "",
          "type": "uint256"
        }
      ],
      "stateMutability": "view",
      "type": "function"
    },
    {
      "inputs": [],
      "name": "pickWinner",
      "outputs": [],
      "stateMutability": "nonpayable",
      "type": "function"
    },
    {
      "inputs": [],
      "name": "allPlayers",
      "outputs": [
        {
          "internalType": "address payable[]",
          "name": "",
          "type": "address[]"
        }
      ],
      "stateMutability": "view",
      "type": "function"
    }
  ],
  "bytecode": "0x608060405234801561001057600080fd5b5033600160006101000a81548173ffffffffffffffffffffffffffffffffffffffff021916908373ffffffffffffffffffffffffffffffffffffffff160217905550610b9a806100616000396000f3fe60806040526004361061004e5760003560e01c806312065fe0146101065780635d495aea14610131578063b0ec809414610148578063dfbf53ae14610173578063f71d96cb1461019e57610101565b366101015767016345785d8a0000341461009d576040517f08c379a0000000000000000000000000000000000000000000000000000000008152600401610094906106f0565b60405180910390fd5b6000339080600181540180825580915050600190039060005260206000200160009091909190916101000a81548173ffffffffffffffffffffffffffffffffffffffff021916908373ffffffffffffffffffffffffffffffffffffffff1602179055005b600080fd5b34801561011257600080fd5b5061011b6101db565b6040516101289190610729565b60405180910390f35b34801561013d57600080fd5b50610146610273565b005b34801561015457600080fd5b5061015d6104bf565b60405161016a9190610834565b60405180910390f35b34801561017f57600080fd5b5061018861054d565b6040516101959190610865565b60405180910390f35b3480156101aa57600080fd5b506101c560048036038101906101c091906108b1565b610573565b6040516101d29190610865565b60405180910390f35b60003373ffffffffffffffffffffffffffffffffffffffff16600160009054906101000a900473ffffffffffffffffffffffffffffffffffffffff1673ffffffffffffffffffffffffffffffffffffffff161461026d576040517f08c379a00000000000000000000000000000000000000000000000000000000081526004016102649061092a565b60405180910390fd5b47905090565b600160009054906101000a900473ffffffffffffffffffffffffffffffffffffffff1673ffffffffffffffffffffffffffffffffffffffff163373ffffffffffffffffffffffffffffffffffffffff1614610303576040517f08c379a00000000000000000000000000000000000000000000000000000000081526004016102fa906109bc565b60405180910390fd5b6004600080549050101561034c576040517f08c379a000000000000000000000000000000000000000000000000000000000815260040161034390610a28565b60405180910390fd5b60006103566105b2565b9050600080805490508261036a9190610a77565b9050600081815481106103805761037f610aa8565b5b9060005260206000200160009054906101000a900473ffffffffffffffffffffffffffffffffffffffff16600260006101000a81548173ffffffffffffffffffffffffffffffffffffffff021916908373ffffffffffffffffffffffffffffffffffffffff160217905550600260009054906101000a900473ffffffffffffffffffffffffffffffffffffffff1673ffffffffffffffffffffffffffffffffffffffff166108fc61042f6101db565b9081150290604051600060405180830381858888f1935050505015801561045a573d6000803e3d6000fd5b50600067ffffffffffffffff81111561047657610475610ad7565b5b6040519080825280602002602001820160405280156104a45781602001602082028036833780820191505090505b50600090805190602001906104ba9291906105ec565b505050565b6060600080548060200260200160405190810160405280929190818152602001828054801561054357602002820191906000526020600020905b8160009054906101000a900473ffffffffffffffffffffffffffffffffffffffff1673ffffffffffffffffffffffffffffffffffffffff16815260200190600101908083116104f9575b5050505050905090565b600260009054906101000a900473ffffffffffffffffffffffffffffffffffffffff1681565b6000818154811061058357600080fd5b906000526020600020016000915054906101000a900473ffffffffffffffffffffffffffffffffffffffff1681565b600044426000805490506040516020016105ce93929190610b27565b6040516020818303038152906040528051906020012060001c905090565b828054828255906000526020600020908101928215610665579160200282015b828111156106645782518260006101000a81548173ffffffffffffffffffffffffffffffffffffffff021916908373ffffffffffffffffffffffffffffffffffffffff1602179055509160200191906001019061060c565b5b5090506106729190610676565b5090565b5b8082111561068f576000816000905550600101610677565b5090565b600082825260208201905092915050565b7f506c656173652070617920302e31206574686572206f6e6c7900000000000000600082015250565b60006106da601983610693565b91506106e5826106a4565b602082019050919050565b60006020820190508181036000830152610709816106cd565b9050919050565b6000819050919050565b61072381610710565b82525050565b600060208201905061073e600083018461071a565b92915050565b600081519050919050565b600082825260208201905092915050565b6000819050602082019050919050565b600073ffffffffffffffffffffffffffffffffffffffff82169050919050565b600061079b82610770565b9050919050565b6107ab81610790565b82525050565b60006107bd83836107a2565b60208301905092915050565b6000602082019050919050565b60006107e182610744565b6107eb818561074f565b93506107f683610760565b8060005b8381101561082757815161080e88826107b1565b9750610819836107c9565b9250506001810190506107fa565b5085935050505092915050565b6000602082019050818103600083015261084e81846107d6565b905092915050565b61085f81610790565b82525050565b600060208201905061087a6000830184610856565b92915050565b600080fd5b61088e81610710565b811461089957600080fd5b50565b6000813590506108ab81610885565b92915050565b6000602082840312156108c7576108c6610880565b5b60006108d58482850161089c565b91505092915050565b7f596f7520617265206e6f7420746865206d616e61676572000000000000000000600082015250565b6000610914601783610693565b915061091f826108de565b602082019050919050565b6000602082019050818103600083015261094381610907565b9050919050565b7f4f6e6c79206d616e616765722063616e20737461727420746865206c6f74746560008201527f7279000000000000000000000000000000000000000000000000000000000000602082015250565b60006109a6602283610693565b91506109b18261094a565b604082019050919050565b600060208201905081810360008301526109d581610999565b9050919050565b7f506c617965727320617265206c657373207468616e2034000000000000000000600082015250565b6000610a12601783610693565b9150610a1d826109dc565b602082019050919050565b60006020820190508181036000830152610a4181610a05565b9050919050565b7f4e487b7100000000000000000000000000000000000000000000000000000000600052601260045260246000fd5b6000610a8282610710565b9150610a8d83610710565b925082610a9d57610a9c610a48565b5b828206905092915050565b7f4e487b7100000000000000000000000000000000000000000000000000000000600052603260045260246000fd5b7f4e487b7100000000000000000000000000000000000000000000000000000000600052604160045260246000fd5b6000819050919050565b610b21610b1c82610710565b610b06565b82525050565b6000610b338286610b10565b602082019150610b438285610b10565b602082019150610b538284610b10565b60208201915081905094935050505056fea2646970667358221220ee63d7cbbc709fb1108c48c9cc5ec4ad93da762fe3fdf594e1f4c3ebaa15acb864736f6c634300080f0033",
  "immutableReferences": {},
  "source": "// SPDX-License-Identifier: MIT\r\n\r\npragma solidity ^0.8.7;\r\n\r\ncontract Lottery{\r\n    address payable[] public players;\r\n    address manager;\r\n    address payable public winner;\r\n\r\n    constructor(){\r\n        manager=msg.sender;\r\n    }\r\n\r\n    receive() external payable{ //receive is a special type of function.\r\n        require(msg.value==0.1 ether, \"Please pay 0.1 ether only\");\r\n        players.push(payable(msg.sender));\r\n    }\r\n    function getBalance() public view returns(uint){\r\n        require(manager==msg.sender, \"You are not the manager\");\r\n        return address(this).balance;\r\n    }\r\n    function random() internal view returns(uint){\r\n        return uint(keccak256(abi.encodePacked(block.difficulty, block.timestamp, players.length))); //This is not the best way to get a random number. We are inputting some value inside the keccak356 algorithm to get a hash and we are returning the uint of the hash\r\n        //Without converting to uint hash is in bytes32 and it looks like this: bytes32: 0x7f0bf87cc66b247f9a81546e208d68007c62dc74efe15d966db71ad4266d0ce0\r\n        //After converting to uint hash looks like this: uint256: 18713298875504598873105195902938350321358923188977311123451743723359499018279\r\n    }\r\n    function pickWinner() public{\r\n        require(msg.sender==manager, \"Only manager can start the lottery\");\r\n        require(players.length>=4, \"Players are less than 4\");\r\n\r\n        uint r=random();\r\n        uint index = r%players.length;\r\n        winner=players[index];\r\n        winner.transfer(getBalance());\r\n        players = new address payable[](0); //Making the array empty using this syntax. This is to reset the lottery.\r\n    }\r\n\r\n    function allPlayers() public view returns(address payable[] memory){\r\n        return players;\r\n    }\r\n}",
  "sourcePath": "C:\\Users\\HP\\Desktop\\Lottery Dapp\\contracts\\Lottery.sol",
  "compiler": {
    "name": "solc",
    "version": "0.8.15+commit.e14f2714.Emscripten.clang"
  },
  "schemaVersion": "3.4.8",
  "updatedAt": "2022-09-10T12:17:29.818Z",
  "devdoc": {
    "kind": "dev",
    "methods": {},
    "version": 1
  },
  "userdoc": {
    "kind": "user",
    "methods": {},
    "version": 1
  }
}